:020000040800F2
:100000008809002081020008292C0008A128000886
:10001000DD2B0008651E00086D3A00080000000096
:10002000000000000000000000000000C9340008CB
:10003000B11E00080000000097020008B535000856
:100040009B0200089B0200089B02000889340008FC
:100050009B0200089B020008DD2600089B020008A6
:100060009B0200089B0200089B0200089B020008FC
:100070009B0200089B0200089B0200089B020008EC
:100080009B0200089B0200089B0200089B020008DC
:100090009B0200089B0200089B0200089B020008CC
:1000A0009B0200089B0200089B0200089B020008BC
:1000B0009B0200089B0200089B0200089B020008AC
:1000C0009B0200089B0200089B0200089B0200089C
:1000D0009B020008A53700089B020008C1370008F2
:1000E0009B0200089B0200089B0200089B0200087C
:1000F0009B0200089B0200089B0200089B0200086C
:100100009B0200089B0200089B0200089B0200085B
:100110009B0200089B0200089B0200081936000899
:100120009B0200089B0200089B0200089B0200083B
:1001300000F002F800F094F80AA090E8000C824465
:100140008344AAF10107DA4501D100F089F8AFF242
:10015000090EBAE80F0013F0010F18BFFB1A43F0A5
:1001600001031847B03E0000D03E0000103A24BF03
:1001700078C878C1FAD8520724BF30C830C144BF0C
:1001800004680C607047000000230024002500264E
:10019000103A28BF78C1FBD8520728BF30C148BFEA
:1001A0000B6070476E2900F01C84702900F0678591
:1001B000662903F0C186652903F0BE86672903F02E
:1001C000BB866129AFF3008003681B0A28BF41F09A
:1001D0008001692900F0FC80642900F0F98075290C
:1001E00000F0F6806F2900F0F584782900F033855F
:1001F000E92900F08F84E42900F08C84F52900F0CF
:100200008984EF2900F0F284F82900F03285036830
:10021000DB0928BF41F08001632901F027807329A1
:1002200001F02C80E32901F03780F32901F03C80B4
:10023000002070471FB59DE8030000F0E1FA01F0CF
:10024000D3F804000020002103F04AFE401C606047
:100250000020002103F05AFEE0601FBD10B510BD64
:1002600001F09CF81146FFF7E5FF03F043FD01F0B4
:100270007BF903B4FFF7F2FF03BC03F034FD000089
:100280000948804709480047FEE7FEE7FEE7FEE72A
:10029000FEE7FEE7FEE7FEE7FEE7FEE70448054966
:1002A000054A064B70470000B935000831010008C7
:1002B000880100208809002088050020880500208A
:1002C000704770B5064600F07BFA056806F10B0032
:1002D00020F00704B4429CBF002070BD2B466A6822
:1002E000BAB11068A04210D304F1080188423CBFA3
:1002F0005068586007D35168101941601168091B94
:10030000016058601460101D70BD13465268002AC9
:10031000E7D12146284600F05FFA0028DED170BD03
:1003200070B50446051F00F04BFA0068002C14BF9E
:10033000446870BD002C18BFAC423CBF20466468C6
:10034000F8D301680A18AA4218BF456003D12A6889
:1003500005461144016028684119A1421CBF6C6028
:1003600070BD6168696021680844286070BD000044
:100370007CB51D4616460C00009001D02044401E5E
:10038000074B7B442A4669460190304600F043FB08
:1003900005461CB10020694600F050FB28467CBD94
:1003A000C10600000FB41CB5084B06AA7B44694681
:1003B0000090059800F02FFB04460020694600F0ED
:1003C0003DFB20461CBC5DF814FB00008D060000C0
:1003D0002DE9F0410646002410687529314616A51E
:1003E00010D000F06AFA002802DA404213A507E0B4
:1003F00031688A0701D512A502E0490704D511A585
:10040000012401E000F062FA00210A2206F124072B
:1004100009E0B0FBF2FCB0FBF2F302FB1C00303051
:1004200078541846491C0028F3D123462A46304602
:10043000BDE8F04100F07CBA000000002D00000093
:100440002B000000200000002DE9F05F89460446E3
:100450004FF0000ADFF874B1FB44C0F820A020463A
:10046000E1688847002874D0252806D0D4E9012106
:100470009047206A401C2062F1E700265F46204634
:10048000E16888472028054607DB312D05D2781919
:1004900010F8200C08B10643F1E7B00701D526F0AB
:1004A0000406C4F81CA00027C4F818A02A2D09D0FF
:1004B000284603F011FC38B304EB8708303DC8F838
:1004C000185019E059F8041B204604EB870291618B
:1004D000E1688847012F054618D1E069002820DA35
:1004E00026F020061DE0D8F8180000EB800005EB90
:1004F00040003038C8F818002046E16888470546B3
:1005000003F0EAFB0028EED1012F0AD02E2D08D1EE
:100510002046E16888477F1C0546022F46F02006EA
:10052000C4DBA069002803DA404246F00106A0615E
:10053000F00701D026F010066C2D0BD0682D09D0E5
:100540004C2D39D06A2D35D0742D35D07A2D33D03D
:1005500016E038E0E1682F4620468847B842054655
:1005600009D16C2F26D04FF48060E1680643204605
:100570008847054604E06C2F1AD04FF4807006437C
:100580000DB3A5F14100192802D8203546F40066C4
:100590004A462946204626604E46FFF703FE80B1B4
:1005A00001280BD0F61D26F0070000F1080956E7D8
:1005B0004020E4E78020D8E70020D6E706F10409D0
:1005C0004DE7284652E7206ABDE8F09FE03A000078
:1005D00070B5064600F0F8F80468054630460A2271
:1005E000002100F057FB2C6070BD401ECAB210F80D
:1005F000011F8A4202D00029F9D10020704710B5AE
:10060000431E13F8014F002CFBD105E011F8014BFC
:10061000002C03F8014B03D0521EF7D200211970B1
:1006200010BD30B505460B462A4613F8014B12F8AB
:10063000010B08B1A042F8D01CB1002802D06D1CFB
:10064000F1E7284630BD10B5431C02E010F8011B4D
:1006500071B18107FAD14FF0013202C88C1A8C4374
:1006600014EAC211F9D0C01A0A0603D0C01E10BD88
:10067000C01A10BD0A0401D0801E10BD0902FCD0B2
:10068000401E10BD421E12F8013F002BFBD111F895
:10069000013B002B02F8013BF9D17047032A40F2DD
:1006A000308010F0030C00F0158011F8013BBCF114
:1006B000020F624498BF11F801CB00F8013B38BF2C
:1006C00011F8013BA2F1040298BF00F801CB38BF3A
:1006D00000F8013B11F0030300F01483083AC0F066
:1006E000088051F8043B083A51F804CBA0E8081000
:1006F000F5E7121D5CBF51F8043B40F8043BAFF333
:100700000080D20724BF11F8013B11F801CB48BF8C
:1007100011F8012B24BF00F8013B00F801CB48BFC2
:1007200000F8012B70474FF000020429C0F012803E
:1007300010F0030C00F01B80CCF1040CBCF1020F94
:1007400018BF00F8012BA8BF20F8022BA1EB0C0169
:1007500000F00DB85FEAC17C24BF00F8012B00F85F
:10076000012B48BF00F8012B70474FF0000200B585
:10077000134694469646203922BFA0E80C50A0E8C4
:100780000C50B1F12001BFF4F7AF090728BFA0E872
:100790000C5048BF0CC05DF804EB890028BF40F83E
:1007A000042B08BF704748BF20F8022B11F0804F80
:1007B00018BF00F8012B70477047704770477047AB
:1007C0000048704730010020004870472801002091
:1007D000704770477047704738B504460A46002096
:1007E0006946AFF30080002808BF38BD0246009973
:1007F000204600F0C5FA012038BD012000F0C7BD39
:10080000F8B5AFF30080054600200C46102000BF6D
:100810000646A819A0420DD9324669460020AFF31A
:100820000080070008BF00F0B2FD0098A04218BF8A
:100830000546C419FFF7C4FF05600746F01D20F008
:1008400007004619284600F00AF8B44208BFF8BD70
:10085000A21B31463868BDE8F84000F091BA00218B
:100860000160C0E9011070471020704770B5044660
:1008700085690068C10601D5302600E02026C00742
:1008800007D070BDD4E9012130469047206A401C52
:1008900020626D1EF6D570BD70B50446856900787E
:1008A000C00707D170BDD4E9012120209047206AFC
:1008B000401C20626D1EF6D570BD09684A0501D541
:1008C00040B27047C905FCD500B2704709684A05B7
:1008D00001D5C0B27047C905FCD580B2704770B56C
:1008E0000C460546012A05D02878800600D5EA691D
:1008F000002302E0012305E05B1C934202D2E05C8E
:100900000028F9D1A869E618C01AA861286A184415
:1009100028622846FFF7AAFF04E0D5E9012114F870
:10092000010B9047B442F8D32846FFF7B5FF70BDDE
:100930002DE9F0470D4699469246044600F12408F9
:100940000168880604D5E06921F01001216000E00B
:100950000120A84201DD471B00E00027A1697A19A8
:1009600002EB0900081AA0612078C00602D42046D4
:10097000FFF77CFF002608E0D4E901211AF8060001
:100980009047206A401C761C20624E45F4DB20789C
:10099000C0060AD52046FFF769FF06E0D4E9012129
:1009A00030209047206A401C2062381EA7F10107C2
:1009B000F4DC07E0D4E9012118F805009047206A2B
:1009C000401C2062281EA5F10105F3DC2046FFF73C
:1009D00063FF2078000602D50220BDE8F0870120E1
:1009E000FBE711680268006A530501D508700AE048
:1009F000D30501D5088006E0130603D5C217C1E967
:100A0000000200E0086001207047000001694A1CF4
:100A100002610878704700B58FB0CDE9013100213F
:100A2000059105497944CDE9031011466846FFF761
:100A30000BFD0FB000BD0000E5FFFFFF0A6802F8E4
:100A4000010B0A607047D1E900239A4202D2531C7D
:100A50000B601070704700002DE9FF5F15468A4655
:100A60000446DFF8AC80F8440027D8E900103E4681
:100A7000CDE9001010E03AF816106A4602A800F01E
:100A800066FC411C07D02178890603D5E269391834
:100A900091420DD80744761C2078800602D5E06983
:100AA000B84205DDAE42E6DB3AF816000028E2D196
:100AB000A069C01BA0612046FFF7D8FED8E900104E
:100AC000CDE90010002017E03AF818106A4602A895
:100AD00000F03DFCB0F1FF3F81460BD000250DF149
:100AE000080B05E0D4E901211BF8050090476D1CB7
:100AF0004D45F7D308F10100B0428046E4DB206A9F
:100B0000384420622046FFF7C7FEBDE8FF9F000083
:100B1000E63400002DE9F0418046D21D22F00702A4
:100B20000025D2E90002F52915A614D0011E72F1A4
:100B3000000106DA0023D0EB030063EB020211A6EA
:100B400008E0D8F800108B0701D50FA602E049078E
:100B500001D50EA601251146002408F1240704E062
:100B600000F028F930323A55641C50EA0102F7D1FE
:100B70002B46324621464046BDE8F041FFF7D8BE3D
:100B8000000000002D0000002B00000020000000ED
:100B900030B4002100F1240408E002F00705D20877
:100BA000303542EA4372DB086554491C52EA0305BA
:100BB000F3D10468002310A2250708D504F020040F
:100BC0000C4304D0C46901230CA2641EC46130BC70
:100BD000FFF7AEBE10B5044621461068FFF776FE5B
:100BE00002462046BDE810400023D1E7D21D22F086
:100BF0000701D1E90023CBE700000000300000002E
:100C0000F0B40D460188090502D5214C7C4402E070
:100C10001F4C7C440E34002100F1240608E002F051
:100C20000F071209E75D42EA03721B097754491C5A
:100C300052EA0307F3D102780023120704D5702D7E
:100C400006D009B1022311342246F0BCFFF770BE72
:100C500001231034F8E770B504460D4621461068AC
:100C6000FFF734FE024629462046BDE870400023C7
:100C7000C6E7D21D22F00703D3E90023C0E70368CB
:100C8000126843F0200303600823C3610023B7E721
:100C9000483300002DE9F04791460F468046044650
:100CA000002614F8015B2DB100F062F80068405D89
:100CB000C007F6D12B2D02D02D2D18D0641E4A4628
:100CC0003946204600F0F4FA27B13968A14201D133
:100CD000C7F800804FF0020471050BD54042002890
:100CE00003DDFFF771FD0460A007BDE8F08746F45F
:100CF0008066E4E70028F8DAFFF766FD04606FF02D
:100D00000040F2E710B5203AC0F00B80B1E818506F
:100D1000203AA0E81850B1E81850A0E81850BFF4E5
:100D2000F5AF5FEA027C24BFB1E81850A0E8185084
:100D300044BF18C918C0BDE810405FEA827C24BFD8
:100D400051F8043B40F8043B08BF7047D20728BF66
:100D500031F8023B48BF11F8012B28BF20F8023BB5
:100D600048BF00F8012B7047004870472801002059
:100D700010B500F039FB001D10BD00BF653100004B
:100D8000034640688C46002818BF88423CBF034693
:100D90004068F8D318681844884207D00CF1030063
:100DA00020F00700001D411A521A0146081D0A6072
:100DB000FFF7B6BA30B5B0F10A024FEA900E71F102
:100DC00000034EEA817EB0EB0E0061EB91014FEA29
:100DD000101E4EEA017E10EB0E0041EB11114FEA9E
:100DE000102E4EEA016E10EB0E0041EB11214FEA7E
:100DF000104E4EEA014E10EB0E0041EB114140182F
:100E000041F100014FEAD00040EA41704FEAD101C0
:100E100010EB80054FEA810444EA907444EB01042E
:100E20006D1944EB0404521BA3414FF0000348BF6B
:100E30000A3200D530BD401C41F1000130BD704781
:100E40002DE9FF4F0C461E464FF0FF378BB0D2E91D
:100E50000001DDF860800A908A46C1F30A5505B9A1
:100E60003D46002108464FF00000BAF1000F00F4A3
:100E7000400005DA00EB80004FF4400101EA500029
:100E80004FEA9059B9F1010F00DDB9460A9850EACE
:100E90004A000ED044F61050A5F2FF3545432F14FA
:100EA000B8F1000F1ED07542291E1EDDC9F10002E7
:100EB0001CE0B8F1010F4FF0000001D0302103E039
:100EC000F24305E02154401CB042FBDB30460022D7
:100ED000002121540B99C1F80880C1E900200FB00E
:100EE000BDE8F08FBD1B6D1CDEE74A4600DA6942A3
:100EF00006A800F0CBFA06AB93E8070003AB83E843
:100F0000070050460A9900F0BDFB8DE80700A0F5E8
:100F100000501F3800900398002D09DD42F21F0198
:100F20004A46084403A90390684600F01CFE08E006
:100F3000A0F500504A461F3803A90390684600F008
:100F400026FE8DE807000004000C03D04FF0FF30B0
:100F5000410800E01046B8F1000F03D000220092D3
:100F600015461EE0751E05D4FFF724FF303262558A
:100F70006D1EF9D5B3460122084302D000227F1C22
:100F800004E02078302801D100227F1E002A099732
:100F900086D01DE0112D07DAFFF70CFF30326255C5
:100FA0006D1C50EA0102F5D1084302D00098C8B187
:100FB0000EE00021681E05E0235C625C635422544D
:100FC000401E491C8142F7DBAB46A81B401E09901E
:100FD000002004F80B000B98099AC0F80880C0E9BB
:100FE000002B7CE711264FF0000859E72DE9F04F60
:100FF00088460446D21D22F0070191B0D1E90001D4
:10100000CDE90A0102F054FE02460B98C00F01D050
:101010002D2007E02068810701D52B2002E0202148
:1010200001EAC000032A099001D0072A05DB034624
:101030004146204600F0DCF90BE12078800601D51E
:10104000E06900E00620B8F1650F814606D0B8F1EE
:10105000660F18D0B8F1670F70D131E00020B9F1F8
:10106000110F009001DB112301E009F101030AAA2D
:1010700001A90CA8FFF7E4FEDDE90C70002609F1D8
:101080000105834647E001204B4600904FF00047A2
:101090000AAA01A90CA8FFF7D3FEDDE90DB00C994F
:1010A0005D46002610B909F101000D18B9EB0500E5
:1010B00003D4C0F1FF3609F10105A5EB09002BE0CF
:1010C000B9F1010F01DA4FF001090020B9F1110F58
:1010D0000090484601DD112300E003460AAA01A959
:1010E0000CA8FFF7ADFEDDE90C704D4600268346E7
:1010F000207800070AD4AB4500DA5D4601A8012D2F
:1011000004DD411911F8011C302907D04F4502DADE
:1011100017F1040F04DA012082460FE06D1EEEE79E
:10112000002F02DCED1B3E4403E0781CA84200DDEA
:101130007D1CB81B00F1010A4FF000472078000722
:1011400003D4AA4501DB4FF0FF3A0021B7F1004F6D
:101150000DF143088DF8431024D002202B23002FDB
:1011600001DA7F422D230A21021EA0F1010000DCDA
:101170005FB197FBF1FC97FBF1F201FB1C7C17467A
:101180000CF1300C08F801CDEEE7A8F10100037076
:101190002188090501D5452100E06521A0F101085C
:1011A00000F8011C09980FA9A1EB0807FF1D00B169
:1011B0000120411901EBEA70A1693844081A401E68
:1011C000A0612078C00602D42046FFF74FFB0998A3
:1011D00028B1D4E901219047206A401C2062207880
:1011E000C00622D52046FFF741FB1EE0002E04DB9F
:1011F000B34502DD01A8805D00E03020D4E9012183
:101200009047206A401C2062761CAAF101005FEA28
:10121000000A0AD100F0E8F8C0680168405CD4E92F
:1012200001219047206A401C2062281EA5F101057B
:10123000DCDC07E0D4E9012118F8010B9047206AB3
:10124000401C2062381EA7F10107F3DC2046FFF79F
:1012500023FB032011B043E610B5436913B1AFF38C
:10126000008001E0FFF73BFB012010BD127800F188
:1012700024010A7000224A700122EDE711684FF044
:10128000FF32E9E710B5436913B1AFF3008001E025
:10129000FFF7E2FB012010BD128800F124018284D7
:1012A0000022C2840122EDE711684FF0FF32E9E726
:1012B0002DE9F05F824615468B4600270AF10104AE
:1012C000B9460078302801D09DB113E014F8010B25
:1012D0000127782803D0582801D045B10AE00DB184
:1012E000102D07D1002714F8010B102502E0082566
:1012F00000E00A250026B0460EE005FB080005FBCD
:1013000006F101271FFA80F801EB1046B6F5803F81
:1013100000D3B94614F8010B294600F0A9F80028BB
:10132000EBDABBF1000F05D00FB1641E00E05446AC
:10133000CBF80040B9F1000F06D0FFF745FA0221C3
:101340000160C81EBDE8F09F48EA0640FAE770B5A4
:1013500016460C460546FFF70BFD036893F801019E
:10136000012806D0FF2C0FD8185D68B101202C7021
:1013700070BDD3F807013246214603F20713034438
:101380002846BDE8704018474FF0FF3070BD10B5DB
:1013900000F0F6F8BDE8104000F0ECB87546FFF735
:1013A000E3FCAE4605006946534620F0070085463B
:1013B00018B020B5FEF772FFBDE820404FF00006E0
:1013C0004FF000074FF000084FF0000B21F007012D
:1013D000AC46ACE8C009ACE8C009ACE8C009ACE870
:1013E000C0098D4670470000004870474801002042
:1013F0002DE9F0411F46044603260168072A01F43F
:10140000006004DB08B116A505E016A503E008B1ED
:1014100015A500E015A521F010002060A069C01EF0
:10142000A0610FB1401EA0612046FFF71FFA4FB127
:10143000D4E9012138469047206A401C2062C01C34
:10144000206206E0206AFAE7D4E9012115F8010BD1
:101450009047761EF8D22046FFF71EFABDE8F081CD
:101460004E414E006E616E00494E4600696E660048
:101470003A2800D2303820F02002412A01D3A2F1CC
:101480003700884201D34FF0FF3070472DE9F04715
:10149000814616468AB0334878440DC88DE80D0061
:1014A00030487844801C03AC0DC884E80D0041F638
:1014B0009B300844372190FBF1F290FBF1F5A5F148
:1014C000800501FB12041B3C02D56442012000E0B0
:1014D0000020DFF890A080460027FA44AAF1BE0A57
:1014E0000DE0E00709D03246684607EB47010AEBFA
:1014F000810100F04CFB8DE8070064107F1C002C7C
:10150000EFD1184F7F44AC3F18E0E80714D007EB49
:1015100004100DF1180A90E80E008AE80E00C06869
:10152000F04201D198190890324606A903A800F0AC
:101530002EFB03AB83E807006D10641C002DE4D183
:1015400032466946B8F1000F03A802D000F00BFB49
:1015500001E000F01CFBC9E90001C9F808200AB04D
:10156000BDE8F087602B00000446AFF30080204602
:10157000FEF77FFE002801D002F0B5BB70470000E7
:1015800010B5012805D0002103A000F021F80120AA
:1015900010BD09A1F8E7000053494752544D454D8D
:1015A0003A204F7574206F662068656170206D6504
:1015B0006D6F7279000000003A2048656170206DFF
:1015C000656D6F727920636F7272757074656400F7
:1015D00070B505460C460A2000E06D1C02F086FB43
:1015E00035B128780028F8D102E0641C02F07EFBB7
:1015F00014B120780028F8D1BDE870400A2002F02C
:1016000075BB00004FF0013C50F8042B51F8043B2F
:101610009A4221D1A2EB0C03934313EACC1317D1C6
:1016200050F8042B51F8043B9A4215D1A2EB0C035D
:10163000934313EACC130BD150F8042B51F8043B1D
:101640009A4209D1A2EB0C03934313EACC13DBD0EB
:101650004FF00000704700BFD01A01BAB1FA81F113
:1016600001F0180122FA01F0CB40C1F12001DBB2F8
:10167000C0B2C01A2CFA01F3D11A914311EAC31176
:10168000E6D170475FEA400C08BF91F0000F4FEAC7
:101690008C234FEAC12243EA51514FEA1C5018BF34
:1016A00000F5F0404FEA300018BF41F000415FEA1A
:1016B0006C5C00F02980BCF1FF3F08BF40F0804027
:1016C0007047130C06BF12044FF0100C4FF0000CC3
:1016D000130E04BF12020CF1080C130F04BF120109
:1016E0000CF1040C930F04BF92000CF1020CD30F09
:1016F00004BF52000CF1010C11464FF00002A0F1A2
:101700001F00A0EB0C00704711F0004F08BF70479E
:1017100031F000413FF4D5AF0B0C06BF09044FF088
:10172000100C4FF0000C0B0E04BF09020CF1080C5A
:101730000B0F04BF09010CF1040C8B0F04BF8900CF
:101740000CF1020CCB0F04BF49000CF1010CCCF1E1
:101750002003A0EB0C0022FA03F302FA0CF241EA98
:10176000030100F10100704720F07F4C80EA030084
:1017700023F07F47ACEB070303F57C5300F00040F8
:1017800003F1FF032DE980494FEA154B09B44FEAF5
:10179000144325EA0B4E24EA03480FF2042606EB15
:1017A000132749083E785FEA320203FB0667C7F554
:1017B000000707FB06F64FEA54374FEAD64606F114
:1017C000020607FB066CCCF1005C4FEA1C472CEAD2
:1017D000074C07FB06F40CFB06F504EB15464FEA35
:1017E000961634BF00204FF000404FEAD13706FB79
:1017F00007FC4FEA1C4C0CFB0BF7D21B03FB0CF74E
:1018000061EB07010CFB0EF7B0EB074072EB1742E0
:101810000CFB08F734BFA2EB0742B2EB074261EBC7
:1018200017414FEA0C444FEA910706FB07FC4FEAC9
:101830001C4C0CFB0BF7B0EBC74072EB573203FBB1
:101840000CF734BFA2EBC742B2EBC74261EB573192
:101850000CFB0EF7B0EBC70072EB57720CFB08F7EE
:1018600034BFA2EBC702B2EBC70261EB5771039F13
:101870004FEA816141EA921104EBCC044FEAD1377F
:101880004FEA826206FB07FC42EA90124FEA806050
:101890004FEA1C4C0CFB0BF7D21B03FB0CF761EB64
:1018A00007010CFB0EF7B0EB074072EB17420CFB85
:1018B00008F734BFA2EB0742B2EB074261EB1741D6
:1018C0004FEA8C554FEA910704EB9C2406FB07FC7A
:1018D0004FEA1C4C0CFB0BF7B0EBC74072EB5732D6
:1018E00003FB0CF734BFA2EBC742B2EBC74261EB7C
:1018F00057310CFB0EF7B0EBC70072EB57720CFBC5
:1019000008F734BFA2EBC702B2EBC70261EB577115
:1019100015EB4C254FEA816141EA92114FEA826250
:101920004FEAD13742EA901206FB07FC44F100046B
:101930004FEA80604FEA1C4C0CFB0BF7D21B03FBF9
:101940000CF761EB07010CFB0EF7B0EB074072EBF5
:1019500017420CFB08F734BFA2EB0742B2EB074279
:1019600061EB174115EB1C154FEA813141EA9241B9
:101970004FEA823242EA90424FEA80304FEA0C76D8
:1019800044F1000448EA03434EEA0B484FF0000ECE
:10199000B2EB080C71EB030724BF624639464EEBED
:1019A0000E0E4FF0000B0018524149414BEB0B0B50
:1019B000B2EB080C71EB03077BF1000B24BF62460E
:1019C00039464EEB0E0E4FF0000B001852414941C4
:1019D0004BEB0B0BB2EB080C71EB03077BF1000B2D
:1019E00024BF624639464EEB0E0E51EA020718BF7D
:1019F00046F0010616EB0E7655F1000254F1000197
:101A000003D5BDE88901BDE80088BDE88901BDE8CE
:101A10000048B619524141EB0101A3F1010370479F
:101A200080807F7E7D7C7B7A79787776767574731B
:101A3000727171706F6E6E6D6C6C6B6A6A696868DA
:101A4000676666656464636362616160605F5F5E70
:101A50005E5D5D5C5C5B5B5A5A59595858575756E6
:101A6000565555555454535352525251515050504B
:101A70004F4F4F4E4E4D4D4D4C4C4C4B4B4B4A4A9D
:101A80004A494949484848474747474646464545E1
:101A9000454444444443434343424242424141411A
:101AA000002B26D4770021D01CB54FEA370703B4AA
:101AB0004FF010004FF010014FF000000FBCBDE8D8
:101AC00010400BF1010BBBF1010F08BF5FEA1707D4
:101AD00022BF12F1010211F101014FF0004143F167
:101AE000000300F0004043EA00007047F9D35708B4
:101AF000DAE746EA064613F1400F4FEA16461FDDC5
:101B000013F1200FDFBF16430A46002120335B424A
:101B1000C8D0C3F1200746EA064602FA07F74FEAA3
:101B2000164646EA0706C3F1200722FA03F201FA35
:101B300007F721FA03F14FF0000342EA0702B1E789
:101B400046EA020646EA06464FEA164646EA010615
:101B5000BCBF46EA0646360C4FF000034FF00002C9
:101B60004FF000019EE72DE9C048934630B491E85C
:101B7000380007C831EA400C48BF34EA430C03D5AB
:101B8000FFF7F2FDFFF78CFFF0BCBDE800882DE900
:101B9000C048934630B491E8380007C810F0804F31
:101BA00008BF13F0804F03D100F005F8FFF778FF6E
:101BB000F0BCBDE8008820F07F4780EA030023F0F6
:101BC0007F4C07EB0C03A3F57C5300F00040A3F11E
:101BD000FE0392F0000F00F0B38095F0000F00F0CC
:101BE00077802DE901494FEA11404FEA144621EA76
:101BF000004800FB06FC24EA064708FB06F607FB44
:101C000008F800FB07F718EB06484CEB164C4FEAB8
:101C1000124B18EB07484FEA15464CEB174022EAE7
:101C20000B4E0BFB06FC25EA06470EFB06F607FBF0
:101C30000EFE0BFB07F71EEB064E4CEB164C4FF05F
:101C400000061EEB074E4CEB174B18EB0B0840F150
:101C5000000018EB0E0B58EB000840F100008F1A43
:101C60004FF000013CBFC943661B14BFB5EB040C29
:101C700000213CBFC943F61B4FEA17444EEA8E0EC3
:101C800027EA04454FEA1C4704FB07622CEA074C8D
:101C900005FB07F70CFB05F604FB0CFC16EB0746EF
:101CA00042EB174216EB0C4642EB1C421BEB0606BE
:101CB00058EB0202414146EA9E0601D5BDE8018982
:101CC000B619524141EB0101A3F10103BDE80189BD
:101CD0004FEA14454FEA114724EA054621EA074C2A
:101CE00005FB07F406FB07F70CFB06F105FB0CFCF4
:101CF00011EB074144EB17444FEA124711EB0C413B
:101D000044EB1C4422EA074C05FB07F206FB07F7ED
:101D10000CFB06F605FB0CFC16EB074642EB1742E4
:101D200016EB0C4642EB1C456A1854F1000148BF03
:101D30007047B619524141EB0101A3F1010370470D
:101D400095F0000F37D04FEA11424FEA144721EACD
:101D5000024624EA074C02FB07F106FB07F70CFBDF
:101D600006F402FB0CFC14EB074441EB17414FEA6D
:101D7000154714EB0C4441EB1C4125EA074C02FBD0
:101D800007F506FB07F70CFB06F602FB0CFC16EB4F
:101D9000074645EB174516EB0C4645EB1C4212195E
:101DA00051F1000148BF7047B619524141EB0101A2
:101DB000A3F1010370474FEA14454FEA114724EAA3
:101DC000054621EA074C05FB07F106FB07F70CFB6C
:101DD00006F24FF0000605FB0CFC12EB074241EB4C
:101DE000174112EB0C4251EB1C4148BF704792184F
:101DF00041EB0101A3F101037047000008B5012187
:101E0000082001F0B7FA0121084601F0B3FA0121D8
:101E10000A4800F0EFFC10208DF803000848808885
:101E2000ADF8000003208DF80200054908686946F6
:101E300000F055FC002000F005F808BD000230005D
:101E40005400002010B504462246044B99881868B7
:101E500000F021FD0248047010BD00005400002075
:101E60005000002002A1114801F028FE00BFFEE74B
:101E70000D0A2A2A2A2A2A2A2A2A2A2A2A2A2A2AFF
:101E80002A2A2A2A2A4275734661756C745F486152
:101E90006E646C65722A2A2A2A2A2A2A2A2A2A2A5F
:101EA0002A2A2A2A2A2A2A2A0D0A00000038014052
:101EB00070470000002100B9704720F07F400E4AB3
:101EC000128842434FF0E0235A6100229A610122B6
:101ED0001A6100BF4FF0E022116901F001021AB14E
:101EE00001F48032002AF5D000224FF0E0231A617D
:101EF0009A6100BFE0E70000160000204FF0E020EC
:101F0000006920F004004FF0E02108610920074932
:101F100008700846007800EB4001C1EBC0104FF696
:101F2000FF7101EAC00002490880704714000020D8
:101F30001600002010B50446207B012802D120683D
:101F4000FEF7EEF9002020606060A060207310BDF5
:101F500070B504460E460025206898B9012020730C
:101F60003046FEF7AEF920602068E0B100206060E6
:101F7000A66003E00020216848556D1CA068A842B7
:101F8000F8D810E00220207303E0002021684855B3
:101F90006D1CA068A842F8D800206060A068B0421C
:101FA00001D20020206070BD2DE9F04780460E462A
:101FB00091461D46089C70190DB1062100E00221D2
:101FC0004718791D2046FFF7C3FF206810B901208C
:101FD000BDE8F087B0216268501C606020688154C1
:101FE000A1888AB23946206801F04BFE6168084436
:101FF000606031126268501C6060206881546268C1
:10200000501C606020688654D4E90012881832465B
:102010004146FEF743FB60683044606015B3290E0B
:102020006268501C606020688154C5F30741626893
:10203000501C606020688154C5F307216268501C01
:102040006060206881546268501C6060206885541C
:10205000D4E9001288182A464946FEF71FFB60683B
:10206000284460600020B3E72DE9F04780468946A8
:1020700017461C464046FEF7E6FAC5B24846FEF74C
:10208000E2FAC6B238212046FFF762FF206810B995
:102090000120BDE8F0871020216808706068401CAE
:1020A000606005F10D003044216848706068401C94
:1020B000606000202168887003202168C870606813
:1020C000801C60602168081D032221A1FEF797FA99
:1020D0006068C01C606001202168C8716068401C95
:1020E00060604020216808726068401C6060380AA7
:1020F0002168487221688F726068801C60600020CF
:102100002168C87221680D736068801C6060216856
:1021100001F10D002A464146FEF771FA6068284435
:102120006060002105F10D0022681154401C2268F6
:1021300016546068801C606021680F31481932466F
:102140004946FEF75CFA6068304460600020A0E712
:10215000454450002DE9F84F81460D4617461E466E
:102160000A9C002000904846FEF76DFA00F0FF0838
:10217000022E03D117B90120BDE8F88F022E08D135
:102180003846FEF760FA824651462046FFF7E0FEE9
:1021900004E005F118012046FFF7DAFE206808B9CF
:1021A0000220E9E780216268501C60602068815449
:1021B000B9F1000F40D0022E07D13846FEF743FA9E
:1021C0000C30284400B2009004E005F108004044BF
:1021D00000B20090A1888AB22068009901F051FDF8
:1021E000616808446060C0216268501C60602068BB
:1021F000815400216268501C6060206881546168CD
:10220000481C6060206800F80180D4E9001288183A
:1022100042464946FEF7F3F9606840446060552144
:102220006268501C606020688154AA216268501C5A
:1022300060602068815427E0022E07D13846FEF7FF
:1022400002FA0A30284400B2009002E0A81D00B251
:102250000090A1888AB22068009901F012FD61689F
:102260000844606040216268501C606020688154AE
:1022700055216268501C606020688154AA21626800
:10228000501C6060206881546168481C6060206850
:102290004654022E3AD13846FEF7D5F900F0FF0A2F
:1022A0004FF0000B00216268501C60602068815470
:1022B0006168481C6060206800F801A00AE017F817
:1022C0000B106268501C6060206881540BF10100A3
:1022D00000F0FF0BD345F2DB290E6268501C6060F2
:1022E00020688154C5F307416268501C6060206813
:1022F0008154C5F307216268501C606020688154D6
:102300006268501C6060206885540BE0C5F30721AB
:102310006268501C6060206881546268501C606074
:1023200020688554002027E72DE9F84305460E462E
:1023300017469846DDF820900020009000242046A3
:10234000641C285CA02802D00120BDE8F883A2B25A
:102350006946284601F099F80446601C08B9022035
:10236000F3E7601C285C295D40EA01203880A41C4A
:102370003988481CFDF7A5FF3060306808B9032094
:10238000E3E73A88511C3068FEF7CDF93A882919FD
:102390003068FEF783F938880444285D0106601C24
:1023A000285C41EA0041A01C285C41EA0020E11CB5
:1023B000695C0843C9F80000241DD9F80010481CC6
:1023C000FDF77FFFC8F80000D8F8000020B930689A
:1023D000FDF7A6FF0420B8E7D9F80020511CD8F873
:1023E0000000FEF7A0F92919D9F80020D8F800005C
:1023F000FEF754F9D9F8000004440020A5E701468F
:10240000C8787047014608787047000010B58021F1
:102410000348FEF788F900200249088010BD00003B
:10242000A80000209C00002070B50546002400BFD5
:1024300000F024F980B90DA10E48FEF7F2F8044629
:1024400054B13A212046FEF7D0F8044614B1641C7A
:10245000204670BD0020FCE70520FFF72BFD28007B
:10246000A5F101018DB2E3D100BFF2E74950442C40
:1024700000000000A800002008B50121042000F0A1
:1024800079FF10208DF8030029488088ADF80000FE
:1024900003208DF8020026490868694600F01FF9FC
:1024A000234A91881068002200F0F5F9FA20FFF71E
:1024B00001FD1F4A91881068012200F0ECF94FF4E9
:1024C000FA70FFF7F7FCFFF7A1FF1AA11B4801F014
:1024D000F5FA03E04FF4FA70FFF7ECFC18A119A02D
:1024E00000F07EF80028F5D118A1144801F0E6FAB2
:1024F00003E04FF4FA70FFF7DDFC17A118A000F01D
:102500006FF80028F5D120A10C4801F0D7FA03E0BC
:102510004FF4FA70FFF7CEFC1FA121A000F060F885
:102520000028F5D128A1054801F0C8FA08BD00002F
:10253000A0000020312E2041540D0A000038014037
:102540004F4B000041540D0A00000000322E204382
:10255000574A41500D0A0000474F5420495000008F
:1025600041542B43574A41503D2240504849434F24
:102570004D4D5F4643222C223232323130333063AC
:102580007830220D0A000000332E20434950535466
:102590004152540D0A000000434F4E4E4543540033
:1025A00041542B43495053544152543D22544350BB
:1025B000222C223138332E3233302E34302E333920
:1025C000222C3837360D0A00342E2045535038322D
:1025D000363620496E6974204F4B0D0A000000000A
:1025E0002DE9F04104460D46C8262046FEF72BF89B
:1025F00087B23A4621460D4801F02AFB0FE000F071
:102600003DF848B929460A48FEF70BF820B1FFF714
:10261000FDFE0020BDE8F0810A20FFF74BFC3000F2
:10262000A6F10101CEB2EAD10120F3E70048004053
:10263000A800002030B589B004460D46FFF7E6FE3D
:102640002A4608A101A8FDF7ADFE0AA101A8FFF7DF
:10265000C7FF20B92A462146074801F0F9FA09B018
:1026600030BD000041542B43495053454E443D2555
:10267000640D0A003E0000000048004010B50D48FF
:10268000008808B9012010BD0A4800880A49098855
:10269000884208D100200749088008A10E4801F0AF
:1026A0000DFA0020EFE70348008803490880012065
:1026B000E9E700009C0000209E00002020455350C8
:1026C000383236365F53656E64436D6420666169E7
:1026D0006C6564200D0A00000038014070472DE948
:1026E000F041024600250026002000230024002798
:1026F00091F803C00CF00F0591F803C00CF0100C1A
:10270000BCF1000F03D091F802C04CEA050591F826
:1027100000C0BCF1000F31D0146800202BE04FF056
:10272000010C0CFA00F3B1F800C00CEA03069E425B
:1027300020D183004FF00F0C0CFA03F7BC4305FACD
:1027400003FC4CEA040491F803C0BCF1280F06D145
:102750004FF0010C0CFA00FCC2F814C00AE091F82A
:1027600003C0BCF1480F05D14FF0010C0CFA00FC7E
:10277000C2F810C0401C0828D1D31460B1F800C0C2
:10278000BCF1FF0F34DD546800202EE000F1080C8E
:102790004FF0010808FA0CF3B1F800C00CEA030688
:1027A0009E4221D183004FF00F0C0CFA03F7BC437B
:1027B00005FA03FC4CEA040491F803C0BCF1280FAD
:1027C00005D100F1080C08FA0CF8C2F8148091F851
:1027D00003C0BCF1480F07D100F1080C4FF001080D
:1027E00008FA0CF8C2F81080401C0828CED35460B8
:1027F000BDE8F081F0B50A46002300240021002541
:1028000000F00046B6F1004F02D11D4EF16901E023
:102810001B4E7168C0F3034583B200F44016B6F551
:10282000401F08D121F07061154E766826F0706661
:10283000134F7E6012E000F48016B6F5801F06D1BB
:10284000032606FA05F4A14341F0706106E0460D47
:10285000360103FA06F6B14341F0706122B1460D2C
:10286000360103FA06F6314300F00046B6F1004F98
:1028700002D1034EF16101E0014E7160F0BD000034
:10288000000001400246002093680B400BB101207C
:1028900000E0002070470AB1016100E0416170472B
:1028A00002A1114801F00AF900BFFEE70D0A2A2A29
:1028B0002A2A2A2A2A2A2A2A2A2A2A2A2A2A2A2A78
:1028C0002A486172644661756C745F48616E646C1D
:1028D00065722A2A2A2A2A2A2A2A2A2A2A2A2A2AD5
:1028E0002A2A2A2A2A0D0A000038014010B54FF47E
:1028F000A06000F0D3F9FFF701FB00F041F9FFF70A
:102900007DFA00F047F801214FF4E13001F0FAF8C8
:102910004FF4E13001F07CFA02A1094801F0CEF851
:1029200010BD000020486172647761726520696E95
:1029300069742066696E69736865642120200A00E5
:102940000038014070B504460D4610480068A042AA
:102950000CD10E4A91881068FFF794FF20B901202E
:1029600000F0DEF8012070BD0020FCE70848006898
:10297000A04209D1064A91881068FFF783FF08B981
:102980000120F0E70020EEE70020ECE780000020C7
:102990008800002008B50121602000F0EBFC4820F1
:1029A0008DF803000D4880880D498988084340F45C
:1029B0000050ADF8000003208DF8020007490868B8
:1029C0006946FFF78CFE07488088ADF8000005498E
:1029D00008686946FFF783FE08BD000080000020FC
:1029E000880000209000002010B5484A91881068A7
:1029F000FFF7A8FF80B14648007840F00100444945
:102A0000087001E0FF2010BD404A91881068FFF770
:102A100099FF0028F6D10CE03D48007800F0010055
:102A200038B13B48007800F0FE00394908700020BA
:102A3000E9E7384A91881068FFF784FF80B134488D
:102A4000007840F002003249087001E0FF20DAE728
:102A5000304A91881068FFF775FF0028F6D10CE026
:102A60002B48007800F0020038B12948007800F0C7
:102A7000FD00274908700320C5E7274A91881068A0
:102A8000FFF760FF80B12248007840F00400204941
:102A9000087001E0FF20B6E71F4A91881068FFF731
:102AA00051FF0028F6D10CE01948007800F004002E
:102AB00038B11748007800F0FB001549087006206F
:102AC000A1E704211548FFF73DFF78B110480078D1
:102AD00040F008000E49087001E0FF2093E7042150
:102AE0000E48FFF72FFF0028F7D10CE008480078C8
:102AF00000F0080038B10648007800F0F7000449FB
:102B0000087009207FE7FF207DE70000800000209B
:102B10009800002088000020900000200014014050
:102B200010B50446012C01D0012300E000231A4611
:102B3000054B99881868FFF7AEFE0CB1012000E044
:102B400000200249087010BD600000205C000020D9
:102B500010B50446012C01D0012300E000231A46E1
:102B6000054B99881868FFF796FE0CB1012000E02C
:102B700000200249487010BD680000205C00002061
:102B800008B50121482000F0F5FB10208DF8030066
:102B900010488088ADF8000003208DF802000D4930
:102BA00008686946FFF79BFD10208DF803000A486E
:102BB0008088ADF8000003208DF8020006490868FF
:102BC0006946FFF78CFD0020FFF7AAFF0020FFF702
:102BD000BFFF08BD600000206800002002A111486E
:102BE00000F06CFF00BFFEE70D0A2A2A2A2A2A2AD3
:102BF0002A2A2A2A2A2A2A2A2A2A2A2A2A4D656D94
:102C00004D616E6167655F48616E646C65722A2A0A
:102C10002A2A2A2A2A2A2A2A2A2A2A2A2A2A2A2A14
:102C20002A0D0A00003801407047000070B50021ED
:102C300000230F22C47804B3154C246804F4E06424
:102C4000C4F5E064210AC1F10403CA40447804FADF
:102C500003F184781440214309010E4C0678A155F4
:102C6000047804F01F050124AC4005786D11AD0017
:102C700005F1E025C5F8004109E0047804F01F05DE
:102C80000124AC40044D0678761145F8264070BD0D
:102C90000CED00E000E400E080E100E002490143C7
:102CA000024A1160704700000000FA050CED00E0D8
:102CB0007FB500200090019002900390012538A379
:102CC0003FA242A14C4800F0F9FE6B462A0234A113
:102CD0003BA0FFF7C9F9002858D1019A91B200989A
:102CE000FFF7A8FCFA20FFF79FFB0446002C49D011
:102CF0002046FFF787FB202844D12046FFF77FFBC3
:102D00000A2839D2DFE800F0050B10151A1F242914
:102D10002E333AA1384800F0D1FE002531E03CA125
:102D2000354800F0CBFE2CE040A1334800F0C6FE51
:102D300027E047A1304800F0C1FE22E04CA12E4818
:102D400000F0BCFE1DE053A12B4800F0B7FE18E0D8
:102D500057A1294800F0B2FE13E05DA1264800F01B
:102D6000ADFE0EE062A1244800F0A8FE09E069A1D2
:102D7000214800F0A3FE04E070A11F4800F09EFE71
:102D800000BF00BF6846FFF7D5F803E072A11A48FC
:102D900000F094FE15B1012004B070BD0020FBE7E7
:102DA000584178536D304E55483464536B4F664AE2
:102DB0006A5765325A5266707952553D00000000DC
:102DC0003239383639363439000000004F6E654EDE
:102DD00065745F4465764C696E6B0D0A44455649CF
:102DE000443A2025732C20202020204150494B4577
:102DF000593A2025730D0A00003801405469707358
:102E00003A09C1ACBDD3B3C9B9A60D0A0000000090
:102E10005741524E3A09C1ACBDD3CAA7B0DCA3BAE0
:102E2000D0ADD2E9B4EDCEF30D0A00005741524EB9
:102E30003A09C1ACBDD3CAA7B0DCA3BAC9E8B1B8DE
:102E40004944BCF8C8A8CAA7B0DC0D0A00000000BD
:102E50005741524E3A09C1ACBDD3CAA7B0DCA3BAA0
:102E6000B7FECEF1C6F7CAA7B0DC0D0A000000001D
:102E70005741524E3A09C1ACBDD3CAA7B0DCA3BA80
:102E8000D3C3BBA74944BCF8C8A8CAA7B0DC0D0A85
:102E9000000000005741524E3A09C1ACBDD3CAA749
:102EA000B0DCA3BACEB4CADAC8A80D0A000000008C
:102EB0005741524E3A09C1ACBDD3CAA7B0DCA3BA40
:102EC000CADAC8A8C2EBCEDED0A70D0A0000000007
:102ED0005741524E3A09C1ACBDD3CAA7B0DCA3BA20
:102EE000BCA4BBEEC2EBCEB4B7D6C5E40D0A00005D
:102EF0005741524E3A09C1ACBDD3CAA7B0DCA3BA00
:102F0000B8C3C9E8B1B8D2D1B1BBBCA4BBEE0D0AFD
:102F1000000000005741524E3A09C1ACBDD3CAA7C8
:102F2000B0DCA3BAD6D8B8B4B7A2CBCDC1ACBDD3B0
:102F3000C7EBC7F3B0FC0D0A000000004552523A3F
:102F400009C1ACBDD3CAA7B0DCA3BACEB4D6AAB46B
:102F5000EDCEF30D0A0000005741524E3A094544A8
:102F6000505F5061636B6574436F6E6E6563742070
:102F70004661696C65640D0A000000001FB50446D7
:102F80000020009001900290039024A000882080EF
:102F9000002000900190029003902148027821A126
:102FA0006846FDF7FFF969462046FDF76BFB0020F8
:102FB0000090019002900390194842781DA1684644
:102FC000FDF7F0F969462046FDF75CFB0020009014
:102FD000019002900390124882781AA16846FDF78A
:102FE000E1F969462046FDF74DFB00200090019075
:102FF000029003900A48C27817A16846FDF7D2F9FB
:1030000069462046FDF73EFB17A12046FDF73AFB37
:103010002046FDF718FBC0B204B010BD7B000000D5
:103020005C000020225265645F4C6564223A25648E
:103030002C00000022477265656E5F4C6564223A81
:1030400025642C002259656C6C6F775F4C65642297
:103050003A25642C0000000022426C75655F4C65C7
:1030600064223A25640000007D0000002DE9F04153
:103070008CB006460020089009900A900B900790AB
:1030800006900590049080460027002500243046D5
:10309000FFF7B8F98046B8F1900F1ED0B8F1A00F35
:1030A00031D104A805AB06AA07A900903046FFF766
:1030B0003BF9074687B908A80090BDF81810DDE96C
:1030C00004320798FEF770FF0498009042A14B4825
:1030D000059B079A00F0F2FC18E0F07855280DD116
:1030E0003079AA280AD1707908B145A000E045A03E
:1030F000024645A1414800F0E1FC03E046A13F48FB
:1031000000F0DCFC02E04FF0FF3700BF00BFFFF72C
:103110007DF9781C10B90CB0BDE8F0813A21059812
:10312000FDF763FA0546002D41D06D1C05E015F84A
:10313000012B2046641C01A90A542878302802DBA0
:1031400028783928F3DD01A8FDF742FA044638A1B2
:103150000598FDF766FA50B1012C03D10120FFF765
:10316000DFFC24E01CBB0020FFF7DAFC1FE032A1EB
:103170000598FDF756FA50B1012C03D10120FFF755
:10318000E7FC14E09CB90020FFF7E2FC0FE02DA162
:103190000598FDF746FA10B1012C08D007E02CA1E4
:1031A0000598FDF73EFA10B1012C00D000BFB8F130
:1031B000A00F0ED16FB90798FDF7B2F80598FDF78B
:1031C000AFF8099A91B20898FFF734FA08A8FEF709
:1031D000B1FE00BF9FE70000636D6469643A20257B
:1031E000732C207265713A2025732C207265715FF3
:1031F0006C656E3A2025640D0A000000003801401D
:10320000457272004F6B0000546970733A09536540
:103210006E642025730D0A00546970733A094D6578
:103220007373616765204944204572720D0A00007E
:103230007265646C65640000677265656E6C6564D8
:103240000000000079656C6C6F776C6564000000AD
:10325000626C75656C65640030B5A5B00020219086
:10326000229023902490002400251BA1214800F0E7
:1032700025FC802101A8FDF778FA01A8FFF77EFE62
:103280000446002C26D021A80323002221460090CA
:1032900019A0FEF75FFFC8B908E001A8415D229AB6
:1032A000501C229021988154681C05B2A542F4DB81
:1032B000229A91B22198FFF7BDF912A10D48229AE6
:1032C00000F0FCFB21A8FEF735FE03E011A1094840
:1032D00000F0F4FB25B030BD546970733A094F6EAD
:1032E000654E65745F53656E64446174612D454439
:1032F000500D0A0000380140323938363936343939
:103300000000000053656E642025642042797465D6
:10331000730D0A005741524E3A094544505F4E65BD
:1033200077427566666572204661696C65640D0A50
:103330000000000029B1064AD2690243044BDA6159
:1033400004E0034AD2698243014BDA61704700000E
:103350000010024029B1064A12690243044B1A6167
:1033600004E0034A12698243014B1A61704700006E
:103370000010024029B1064A92690243044B9A6147
:1033800004E0034A92698243014B9A61704700004E
:103390000010024029B1064AD2680243044BDA60A9
:1033A00004E0034AD2688243014BDA6070470000B0
:1033B0000010024030B500210022002400232D4DD2
:1033C0006D6805F00C0121B1042905D0082923D12D
:1033D00005E0294D056022E0274D05601FE0254DE1
:1033E0006D6805F47012234D6D6805F48034022574
:1033F00005EB92421CB9214D554305600BE01D4D74
:103400006D6805F400351DB11C4D5543056002E0A3
:10341000194D5543056002E0174D056000BF00BF20
:10342000144D6D6805F0F0010909154D6B5C0568D8
:10343000DD4045600F4D6D6805F4E061090A104DEF
:103440006B5C4568DD4085600A4D6D6805F4605130
:10345000C90A0B4D6B5C4568DD40C560054D6D6864
:1034600005F44041890B074D6B5CC568B5FBF3F56E
:10347000056130BD0010024000127A0000093D00D5
:1034800000000020100000207047F0B50346012422
:10349000002600250020086000BF1046571CBAB265
:1034A0001D5C05F07F07086807FB04000860E40165
:1034B000761C042E02D94FF0FF30F0BD05F08000DD
:1034C0000028EAD11046F8E7704710B500F002F87E
:1034D00010BD00000CB5002001900090334800683A
:1034E00040F480303149086000BF3048006800F483
:1034F000003000900198401C0190009818B9019884
:10350000B0F5A06FF1D12948006800F4003010B187
:103510000120009001E0002000900098012843D194
:103520002348006840F01000214908600846006800
:1035300020F0030008600846006840F002000860C0
:103540001A4840681949486008464068486008467B
:10355000406840F4806048600846406820F47C1071
:1035600048600846406840F4881048600846006893
:1035700040F08070086000BF0C48006800F00070E8
:103580000028F9D00948406820F003000749486046
:103590000846406840F00200486000BF03484068A9
:1035A00000F00C000828F9D10CBD0000001002400A
:1035B000002002407047000010B51348006840F03A
:1035C00001001149086008464068104908400E494A
:1035D0004860084600680E4908400B4908600846E4
:1035E000006820F4802008600846406820F4FE004F
:1035F00048604FF41F008860FFF767FF4FF00060DE
:103600000449086010BD0000001002400000FFF8EF
:10361000FFFFF6FE08ED00E010B50121094800F0BB
:1036200054F868B10848008840F400400649088012
:103630000121044800F03AF80021024800F039F86E
:1036400010BD0000001400404C0000207FB505466E
:103650000C4601212020FFF76DFEADF80450ADF8B7
:1036600000400020ADF80600ADF8020069460E48A3
:1036700000F046F8012211460B4800F037F801210E
:10368000094800F016F837208DF80C0000208DF85E
:103690000D0002208DF80E0001208DF80F0003A808
:1036A000FFF7C4FA7FBD000000140040CA43028245
:1036B000704721B1028842F00102028004E00288D2
:1036C0004FF6FE731A400280704730B50246002064
:1036D00000230024158A05EA0103958905EA0104FF
:1036E00013B10CB1012000E0002030BD1AB1838974
:1036F0000B43838102E083898B4383817047000001
:10370000002202881D4B98420ED01D4B98420BD0D0
:10371000B0F1804F08D01B4B984205D01A4B98420D
:1037200002D01A4B984204D14FF68F731A404B883F
:103730001A43174B984207D0164B984204D04FF6C5
:10374000FF431A40CB881A4302808B8883850B88FD
:1037500003850A4B98420BD0094B984208D00E4B78
:10376000984205D00D4B984202D00D4B984201D1A2
:103770000B7A03860123838270470000002C0140EE
:10378000003401400004004000080040000C0040EC
:10379000001000400014004000400140004401407F
:1037A0000048014010B540F22551044800F09FF850
:1037B00018B12021014800F029F810BD003801405F
:1037C00010B540F225510E4800F091F8B0B10D4807
:1037D0000088802802D300200A4908800848001D7C
:1037E0000088C1B2074802880088401C054B188039
:1037F000054881542021024800F008F810BD00005F
:10380000004800409C000020A800002001F4007245
:10381000B2F5007F00D100BFCA430280704721B1DA
:10382000828942F40052828104E082894DF6FF735E
:103830001A4082817047000010B504462048844237
:1038400009D101218803FFF7A5FD00214FF4804035
:10385000FFF7A0FD32E01B48844209D10121480452
:10386000FFF778FD00214FF40030FFF773FD25E0EE
:103870001548844209D101218804FFF76BFD00211E
:103880004FF48020FFF766FD18E01048844209D10C
:103890000121C804FFF75EFD00214FF40020FFF76F
:1038A00059FD0BE00A48844208D101210805FFF7C1
:1038B00051FD00214FF48010FFF74CFD10BD0000BA
:1038C000003801400044004000480040004C0040E7
:1038D0000050004002460020B1F5007F00D100BF3B
:1038E00013880B400BB1012000E00020704770B539
:1038F0000246002400230025002040F66A16B1424B
:1039000000D100BFC1F3421501F01F03012606FAE2
:1039100003F3012D02D19689334006E0022D02D136
:10392000168A334001E0968A33400C12012606FACB
:1039300004F41688344013B10CB1012000E00020DB
:1039400070BDF0B50346002400260025002040F697
:103950006A17B94200D100BF1846C1F3421401F002
:103960001F06012707FA06F5012C01D10C3004E0EF
:10397000022C01D1103000E014301AB107682F4337
:10398000076002E00768AF430760F0BD2DE9F0472C
:1039900086B005460E460024A24600BFA146002779
:1039A000B08900B100BF2F462C8A4CF6FF7004404E
:1039B000F08804432C82AC894EF6F3100440B088A2
:1039C00031890843718908430443AC81AC8A4FF6BE
:1039D000FF400440B0890443AC8201A8FFF7EAFC31
:1039E0001F48874202D1DDF810A001E0DDF80CA0ED
:1039F000A88900F4004040B10AEBCA0000EB0A10AD
:103A000031684900B0FBF1F807E00AEBCA0000EBAF
:103A10000A1031688900B0FBF1F86420B8FBF0F0BF
:103A200004012009642101FB1089A88900F40040E9
:103A300040B1322000EBC900B0FBF1F000F007000C
:103A4000044308E0322000EB09106421B0FBF1F0E0
:103A500000F00F0004432C8106B0BDE8F0870000A1
:103A600000380140C1F308028280704702A1124869
:103A700000F024F800BFFEE70D0A2A2A2A2A2A2A83
:103A80002A2A2A2A2A2A2A2A2A2A2A2A2A557361EB
:103A900067654661756C745F48616E646C65722A17
:103AA0002A2A2A2A2A2A2A2A2A2A2A2A2A2A2A2A76
:103AB0002A2A0D0A00000000003801400FB430B57A
:103AC000CBB0054601AC50A800904FF4947101A80A
:103AD000009B4F9AFCF74CFC002000900BE014F880
:103AE000011B2846FFF7BEFF00BF40212846FFF715
:103AF000F1FE0028F9D020780028F0D14BB030BC7E
:103B00005DF814FBF0B58BB005460C4600BF00BF56
:103B1000012C04D0022C12D0032C36D122E001213A
:103B200044F20400FFF726FC404803C8CDE9030136
:103B30003F4803C8CDE901013E4E252726E001217B
:103B40000420FFF717FC01214804FFF7F3FB3A4973
:103B500003C9CDE90301394903C9CDE90101384E53
:103B6000262713E001210820FFF704FC0121880427
:103B7000FFF7E0FB334903C9CDE90301324903C92B
:103B8000CDE90101314E272700E000BF00BF18201A
:103B90008DF82B00BDF81000ADF8280003208DF83B
:103BA0002A000AA90398FEF79AFD04208DF82B003D
:103BB000BDF80800ADF8280003208DF82A000AA9F6
:103BC0000398FEF78CFD06950020ADF824000C202C
:103BD000ADF822000020ADF82000ADF81E00ADF8D1
:103BE0001C0006A93046FFF7D1FE01213046FFF741
:103BF00016FE012240F225513046FFF7A2FE8DF855
:103C0000147001208DF8170000208DF81500012C8C
:103C100002D102208DF81600032C02D100208DF86D
:103C2000160005A8FFF702F80BB0F0BD1800002041
:103C30002000002000380140280000203000002033
:103C400000440040380000204000002000480040B0
:103C50002DE9F04107460C46154600260DE014F804
:103C6000011B3846FFF7FEFE00BF40213846FFF734
:103C700031FE0028F9D0701C86B2AE42EFDBBDE801
:103C8000F08170B503460024002500BF01F07F05D8
:103C9000C90909B145F080051046561CB2B21D5441
:103CA000641C09B1052CF1DB501E80B2024670BDC8
:103CB000490050EAC12018BF04204A0D18BF40F047
:103CC000010040F2FF72B2EB515F08BF40F002000A
:103CD000012808BF0520704730380A2801D201208A
:103CE000704700207047014600BF7047014600BF83
:103CF0007047000000250024FEF7F8FD0020FEF7C5
:103D00000FFF4FF4FA60FEF7D5F80120FEF708FF29
:103D10004FF4FA60FEF7CEF80020FEF701FF4FF4F3
:103D2000FA60FEF7C7F80120FEF7FAFE4FF4FA60DA
:103D3000FEF7C0F80020FEF7F3FE4FF4FA60FEF73E
:103D4000B9F80120FEF7ECFEFEF796FB03E04FF416
:103D5000FA70FEF7AFF8FEF7ABFF0028F7D10122AB
:103D600011022348FEF797FDFA20FEF7A3F8002280
:103D70004FF480711E48FEF78EFD37E0FEF734FEEB
:103D800010B1032816D10AE01A48007818B90120AA
:103D9000FEF7C6FE02E00020FEF7C2FE0BE015486B
:103DA000407818B90120FEF7D3FE02E00020FEF7AC
:103DB000CFFE00E000BF00BF681C80B20546B0F532
:103DC000FA7F08DB0CA11148FFF778FEFFF744FAF1
:103DD0000025FEF71BFB0020FEF726FB044614B16E
:103DE0002046FFF743F90A20FEF764F8C6E7000013
:103DF000000C01405C0000204F6E654E65745F53FF
:103E0000656E64446174610D0A0000000038014071
:103E100010B586B0044601210820FFF7ABFA012156
:103E20008804FFF787FA2A48FFF706FD4FF4806001
:103E3000ADF8100003208DF8120018208DF8130043
:103E400004A92448FEF74BFC4FF40060ADF81000C5
:103E500004208DF8130004A91E48FEF740FC0094CE
:103E60000020ADF80400ADF80600ADF80800ADF88C
:103E70000C000C20ADF80A0069461548FFF786FDD6
:103E800001211348FFF7CBFC012240F225511048D5
:103E9000FFF757FD27208DF8140002208DF815003C
:103EA00003208DF8160001208DF8170005A8FEF7F5
:103EB000BDFE41F61F4140F2E730FFF7C7FB00208F
:103EC0000549088000210548FFF7F3FB06B010BD47
:103ED00000480040000C01404C000020001400404D
:103EE00010B500290AD00878002807D00548784482
:103EF000FDF788FB002801D0002010BD024878445F
:103F000010BD0000460100003E01000010B5002970
:103F10000AD00878002807D005487844FDF772FBDE
:103F2000002801D0002010BD0248784410BD0000D8
:103F30002A02000022020000FDF758B80400000821
:103F4000000000000000000200010000100000005E
:103F500000000000000000003031323334353637C5
:103F600038394142434445464030580030313233BD
:103F700034353637383961626364656640307800BD
:103F800002400000000000A000000000054000000A
:103F9000000000C8000000000C4000000000409C31
:103FA00000000000194000000020BCBE000000001E
:103FB00034400000BFC91B8E00000004B540000063
:103FC000504BCFD06607E2CF010000006C410000EB
:103FD0003E8251AADFEEA73401000000D942000062
:103FE000DCB5A0E23A301F97FFFFFFFFB4450000A9
:103FF000FD25A0C8E9A3C14FFFFFFFFFFF3F000061
:104000000000008000000000FF3F00000000008072
:10401000000000006041000800000020A80000002F
:104020006C01000808420008A8000020E008000019
:10403000880100081001000043000000F8FFFFFFA6
:1040400000404040404040404040414141414140AB
:104050004040404040404040404040404040404060
:1040600040050202020202020202020202020202EF
:1040700002202020202020202020200202020202F4
:10408000020290909090909010101010101010104C
:104090001010101010101010101010100202020258
:1040A000020288888888888808080808080808089C
:1040B0000808080808080808080808080202020298
:1040C00040000000000000000000000000000000B0
:1040D00000000000000000000000000000000000E0
:1040E00000000000000000000000000000000000D0
:1040F00000000000000000000000000000000000C0
:1041000000000000000000000000000000000000AF
:10411000000000000000000000000000000000009F
:10412000000000000000000000000000000000008F
:10413000000000000000000000000000000000007F
:10414000000000001C00000043000000F8FFFFFF1B
:104150000C0000000E0000000F0000002E00000008
:10416000000000000102030401020304060708091D
:1041700002040608000000000008014000020000E0
:104180000008014000040000000801400400000095
:104190000008014008000000000C0140000400007D
:1041A000000C0140000800000000000000000000BA
:1041B00000000000000C01400001000000000000B1
:1041C000000C014020000000001801402000000009
:1041D0000010014000040000000801400010000031
:1041E0000018014010000000001801400800000005
:1041F0000008014001000000000000000000000075
:0842000000080140100000005D
:0400000508000131BD
:00000001FF
